:020000020000FC
:0200000045C0F9
:08000400B5D01895A2D01895A3
:0400780030D01895D7
:10008C000FEF0DBF00E10EBF0FEF07BB00E001BB90
:10009C000FEF02BB02E000939B0003E0009398007B
:1000AC0000E40093990008E900939A000EE0009395
:1000BC009D000AE000936A0003E009BF66277727DA
:1000CC00882740E648BB542F789458BBFECF40910C
:1000DC009C0047FF01D01AD005E5041791F4863037
:1000EC0069F001E0800F00E908BB1CE84CD04BD054
:1000FC00089558BB772715E046D0E9CF00E908BB37
:10010C00FDCF06E6041761F4642FE1DF06E606175F
:10011C0039F4662708EF041721F0440F542F089583
:10012C00089558BB00E000939A001AE02CD005E526
:10013C0000939C001AE027D000E100939A0058BB72
:10014C0008950F931F930FB70F9300E008BB14E6AD
:10015C001AD000E208BB14E616D00F910FBF1F9106
:10016C000F9108950F931F930FB70F9300E008BBE7
:10017C0014E609D000E408BB14E605D00F910FBFBC
:10018C001F910F9108951F932F933F9330EE2DEEF7
:10019C002A95F1F73A95D9F71A95C1F73F912F9116
:0401AC001F91089502
:00000001FF
